:020000040800F2
:1000000000280020611700081D15000823150008AE
:10001000291500082F1500083515000800000000FC
:100020000000000000000000000000003B15000878
:100030004715000800000000531500085F15000870
:10004000A9170008A9170008A9170008A917000890
:10005000A9170008A9170008A9170008A917000880
:10006000A9170008A9170008A9170008A917000870
:10007000A9170008A9170008A9170008A917000860
:10008000A9170008A9170008A9170008A917000850
:10009000A9170008A9170008A9170008A917000840
:1000A000A9170008A9170008A9170008A917000830
:1000B0006D150008A917000800000000A917000826
:1000C000A91700080000000000000000A9170008A0
:1000D00000000000A9170008A91700080000000090
:1000E000A9170008A9170008A917000800000000B8
:1000F0000000000000000000000000000000000000
:0C01000000000000000000005FF808F1A3
:10010C0010B5054C237833B9044B13B10448AFF345
:10011C0000800123237010BD54000020000000005B
:10012C00D82D000808B5034B1BB103490348AFF3A6
:10013C00008008BD0000000058000020D82D0008E9
:10014C0080B483B000AF7860094A7B6852F82330E2
:10015C00012B06D1064A7B68002142F823100123AB
:10016C0000E0002318460C37BD4680BC704700BF2A
:10017C007000002080B483B000AF7860044A7B68C4
:10018C00012142F8231000BF0C37BD4680BC7047DC
:10019C007000002080B582B000AF00237B6073E05C
:1001AC003D4A7B6852F823203C497B6841F8232068
:1001BC003B4A7B6852F8232037497B6841F823205F
:1001CC007B68002B06D18021364801F0D3FD034615
:1001DC001A4611E07B68012B07D14FF4807131482E
:1001EC0001F0C8FD03461A4606E04FF400712D4895
:1001FC0001F0C0FD03461A4629497B6841F82320CB
:10020C00264A7B6852F8232023497B6851F8233017
:10021C009A4236D1204A7B6852F8232020497B68C9
:10022C0051F823309A422CD11F4A7B6852F8232074
:10023C001B497B6851F823309A4214D0184A7B68CA
:10024C0052F8232018497B6841F82320144A7B6814
:10025C0052F82330002B14D17868FFF78BFF134B27
:10026C00C8221A600DE0114B1B68013B0F4A13604A
:10027C000E4B1B68002B04D10B4A7B68012142F802
:10028C0023107B6801337B607B68022B88DD00BF09
:10029C0000BF0837BD4680BD0C00002000000020C8
:1002AC0018000020000C0140240000203000002029
:1002BC0080B500AF904B1B68013B042B00F2EF8123
:1002CC0001A252F823F000BFE902000885030008E0
:1002DC00450400082D050008ED050008874B052294
:1002EC001A60874B02221A60864B03221A60012285
:1002FC004FF6FF71844801F054FD824B1B684FF49C
:10030C007A7202FB03F3184600F0EEFF7A4B0222DE
:10031C001A607E4B01221A60784B1B687C4A136072
:10032C007A4B1B687A4A12681146184600F05EFE3A
:10033C00FA2001F011F80020FFF702FF0346012B11
:10034C0040F0AF81714B03221A60704B1B686B4AF3
:10035C0012681146184600F049FE674B0C221A60D1
:10036C0041F6583000F0DCFF4FF4FA7000F0BCFF9F
:10037C00FA2000F0F1FF94E101F002F901F06EF9BE
:10038C00644B1B68012B0BD15B4B03221A605C4B3B
:10039C001B684FF47A7202FB03F3184600F0A4FFBB
:1003AC000020FFF7CDFE0346012B18D1574B02223C
:1003BC001A60564B1B68514A12681146184600F0D9
:1003CC0015FE4D4B0C221A604FF4FA7000F08CFFA6
:1003DC0041F6583000F0A4FFFA2000F0BDFF4E4B60
:1003EC001B68012B40F05F814C4B1B68032B17DD06
:1003FC004A4B00221A60464B1B68013B444A13606F
:10040C00434B1B68002B03DC3C4B1B68404A1360BE
:10041C003E4B1B683E4A12681146184600F0E6FD3A
:10042C00FA2000F099FF3D4B1B685A1C3B490A60AF
:10043C00184600F04FFD36E101F0A2F801F0F8F893
:10044C00344B1B68012B0BD12B4B04221A602D4B08
:10045C001B684FF47A7202FB03F3184600F044FF5A
:10046C000020FFF76DFE0346012B18D1274B02220B
:10047C001A60264B1B68214A12681146184600F078
:10048C00B5FD1D4B0C221A604FF4FA7000F02CFFD6
:10049C0041F6583000F044FFFA2000F05DFF1E4B8F
:1004AC001B68012B40F001811C4B1B68032B17DDD3
:1004BC001A4B00221A60164B1B68013B144A13603E
:1004CC00134B1B68002B03DC0C4B1B68104A13608E
:1004DC000E4B1B680E4A12681146184600F086FD3A
:1004EC00FA2000F039FF0D4B1B685A1C0B490A60AF
:1004FC00184600F0EFFCD8E07C0000203C00002007
:10050C00400000204400002000080140340000207E
:10051C003800002088000020980000208000002077
:10052C0001F05AF801F06EF8634B1B68012B0BD1EC
:10053C00624B05221A60624B1B684FF47A7202FB05
:10054C0003F3184600F0D0FE0020FFF7F9FD034638
:10055C00012B18D15B4B02221A605A4B1B685A4A6A
:10056C0012681146184600F041FD544B0C221A60DB
:10057C004FF4FA7000F0B8FE41F6583000F0D0FE9F
:10058C00FA2000F0E9FE514B1B68012B40F08F80E4
:10059C004F4B1B68032B17DD4D4B00221A604D4B44
:1005AC001B68013B4B4A13604A4B1B68002B03DC56
:1005BC00454B1B68474A1360424B1B68454A1268FF
:1005CC001146184600F012FDFA2000F0C5FE404B13
:1005DC001B685A1C3E490A60184600F07BFC66E01A
:1005EC0000F0E4FF01F00EF8334B1B68012B0BD12C
:1005FC00324B02221A60384B1B684FF47A7202FBA2
:10060C0003F3184600F070FE0020FFF799FD034637
:10061C00012B18D12B4B02221A602A4B1B682A4A39
:10062C0012681146184600F0E1FC244B0C221A60AB
:10063C004FF4FA7000F058FE41F6583000F070FE9E
:10064C00FA2000F089FE214B1B68012B31D1204B85
:10065C001B68032B17DD1E4B00221A601D4B1B68F9
:10066C00013B1C4A13601B4B1B68002B03DC164B15
:10067C001B68184A1360134B1B68164A1268114604
:10068C00184600F0B3FCFA2000F066FE104B1B6815
:10069C005A1C0F490A60184600F01CFC09E000BF08
:1006AC0008E000BF06E000BF04E000BF02E000BFAE
:1006BC0000E000BF00BF80BD880000207C0000204F
:1006CC0040000020340000203C0000209800002056
:1006DC0080000020380000204400002080B500AFCE
:1006EC009D4B1B680E2B00F04B810E2B00F3E18110
:1006FC000C2B03D00D2B00F09780DAE1974B1B6885
:10070C00974A12681146184600F070FC0020FFF75B
:10071C0017FD0346012B16D18F4B0D221A608F4B00
:10072C0003221A608D4B1B680221184600F05EFCF8
:10073C00FA2000F011FE4FF4FA7000F0D5FD41F6EE
:10074C00583000F0EDFD0120FFF7FAFC0346012BB9
:10075C001DD1834B1B68622B19DC814B1B68622BF0
:10076C0015DC804B1B68622B11DC7D4B1B68013345
:10077C007B4A13607B4B1B6801337A4A1360784BBE
:10078C001B68794A136041F6583000F0C9FD02200D
:10079C00FFF7D6FC0346012B17D16F4B02221A60D0
:1007AC006E4B1B68704A12681146184600F01EFC0E
:1007BC0041F6583000F0B4FD6A4B1B684FF47A7266
:1007CC0002FB03F3184600F08FFD684B1B68012BEE
:1007DC0005D100F059FF4FF4FA7000F085FD644B21
:1007EC001B68012B08D15C4B01221A605E4B012265
:1007FC001A605A4B01221A605E4B1B68012B40F0A9
:10080C005A815D4B1B68042B02D15B4B00221A6092
:10081C00FA2000F0A1FD584B1B685A1C56490A607F
:10082C00184600F057FB46E14C4B1B68534A1268C4
:10083C001146184600F0DAFB0020FFF781FC034656
:10084C00012B16D1444B0E221A60444B04221A6021
:10085C00424B1B680321184600F0C8FBFA2000F03D
:10086C007BFD4FF4FA7000F03FFD41F6583000F07C
:10087C0057FD0120FFF764FC0346012B1DD1384BBB
:10088C001B68622B19DC364B1B68622B15DC354B55
:10089C001B68622B11DC394B1B680133374A136020
:1008AC002F4B1B6801332E4A13602D4B1B682E4AAD
:1008BC00136041F6583000F033FD2E4B1B68012BB2
:1008CC0011D12D4B1B68042B02D12B4B00221A602B
:1008DC00FA2000F041FD284B1B685A1C26490A607F
:1008EC00184600F0F7FA0220FFF72AFC0346012B0A
:1008FC0017D1194B02221A60184B1B681A4A12683E
:10090C001146184600F072FB41F6583000F008FD15
:10091C00144B1B684FF47A7202FB03F3184600F079
:10092C00E3FC134B1B68012B09D10B4B0C221A60F7
:10093C0041F6583000F0F4FC084B02221A600B4BC5
:10094C001B68012B40F0B98000F0C0FE4FF4FA7028
:10095C0000F0CAFCB1E000BF7C0000203400002095
:10096C003C000020440000203800002088000020BB
:10097C009000002098000020800000204000002003
:10098C00504B1B68504A12681146184600F02EFB5B
:10099C004E4B1B68012B05D100F0BAFE4FF4FA70D8
:1009AC0000F0A2FC0120FFF7CBFB0346012B1DD16D
:1009BC00474B1B68622B19DC454B1B68622B15DC03
:1009CC00414B1B68622B11DC3F4B1B6801333E4AC9
:1009DC0013603F4B1B6801333D4A13603C4B1B6853
:1009EC003C4A136041F6583000F09AFC3A4B1B68B5
:1009FC00012B11D1394B1B68042B02D1374B002230
:100A0C001A60FA2000F0A8FC344B1B685A1C3349BE
:100A1C000A60184600F05EFA314B1B68012B09D1B5
:100A2C00304B0D221A60274B03221A6041F65830C6
:100A3C0000F076FC0220FFF783FB0346012B17D155
:100A4C00284B02221A601F4B1B68224A126811465F
:100A5C00184600F0CBFA1C4B1B684FF47A7202FB61
:100A6C0003F3184600F040FC41F6583000F058FCF7
:100A7C000020FFF765FB0346012B20D1194B012207
:100A8C001A60144B01221A600E4B01221A600D4B96
:100A9C001B680521184600F0A9FAFA2000F05CFC4E
:100AAC0041F6583000F03CFC4FF4FA7000F01CFC9E
:100ABC0005E000BF04E000BF02E000BF00E000BFA3
:100ACC0000BF80BD340000204400002088000020BE
:100ADC003C000020380000209800002080000020FE
:100AEC00900000207C00002080B582B000AF7860C0
:100AFC007B68092B00F2BE8101A252F823F000BFE3
:100B0C00350B0008890B0008DD0B0008310C0008C0
:100B1C00850C0008D90C00082D0D0008810D00086B
:100B2C00D50D0008290E000800228021D04801F0C4
:100B3C0038F900224FF48071CD4801F032F90022CF
:100B4C004FF40071CA4801F02CF900224FF4806177
:100B5C00C74801F026F900224FF40061C44801F0A7
:100B6C0020F900224FF48051C14801F01AF90122FA
:100B7C004FF40051BE4801F014F9A5E10122802187
:100B8C00BB4801F00EF900224FF48071B84801F017
:100B9C0008F900224FF40071B54801F002F9012266
:100BAC004FF48061B24801F0FCF801224FF400616F
:100BBC00AF4801F0F6F801224FF48051AC4801F037
:100BCC00F0F801224FF40051A94801F0EAF87BE15A
:100BDC0000228021A64801F0E4F800224FF4807135
:100BEC00A34801F0DEF801224FF40071A04801F097
:100BFC00D8F800224FF480619D4801F0D2F8002211
:100C0C004FF400619A4801F0CCF801224FF4805166
:100C1C00974801F0C6F800224FF40051944801F0B7
:100C2C00C0F851E100228021914801F0BAF800226D
:100C3C004FF480718E4801F0B4F800224FF400712B
:100C4C008B4801F0AEF800224FF48061884801F027
:100C5C00A8F801224FF40061854801F0A2F80122A6
:100C6C004FF48051824801F09CF800224FF400515F
:100C7C007F4801F096F827E1012280217C4801F0A1
:100C8C0090F800224FF48071794801F08AF8002224
:100C9C004FF40071764801F084F801224FF4806122
:100CAC00734801F07EF801224FF40061704801F0A6
:100CBC0078F800224FF480516D4801F072F8002250
:100CCC004FF400516A4801F06CF8FDE000228021DD
:100CDC00674801F066F801224FF48071644801F016
:100CEC0060F800224FF40071614801F05AF80022BC
:100CFC004FF480615E4801F054F801224FF400611A
:100D0C005B4801F04EF800224FF48051584801F036
:100D1C0048F800224FF40051554801F042F8D3E056
:100D2C0000228021524801F03CF801224FF48071DE
:100D3C004F4801F036F800224FF400714C4801F096
:100D4C0030F800224FF48061494801F02AF8002263
:100D5C004FF40061464801F024F800224FF4805112
:100D6C00434801F01EF800224FF40051404801F0B6
:100D7C0018F8A9E0002280213D4801F012F8002269
:100D8C004FF480713A4801F00CF800224FF40071D6
:100D9C00374801F006F801224FF48061344801F025
:100DAC0000F801224FF40061314800F0FAFF0122F3
:100DBC004FF480512E4800F0F4FF01224FF4005103
:100DCC002B4800F0EEFF7FE000228021284800F045
:100DDC00E8FF00224FF48071254800F0E2FF00226A
:100DEC004FF40071224800F0DCFF00224FF48061C8
:100DFC001F4800F0D6FF00224FF400611C4800F0A1
:100E0C00D0FF00224FF48051194800F0CAFF002295
:100E1C004FF40051164800F0C4FF55E00022802129
:100E2C00134800F0BEFF00224FF48071104800F010
:100E3C00B8FF00224FF400710D4800F0B2FF002201
:100E4C004FF480610A4800F0ACFF01224FF40061BE
:100E5C00074800F0A6FF00224FF48051044800F030
:100E6C00A0FF00224FF40051014800F09AFF2BE044
:100E7C000008014001228021154800F092FF012258
:100E8C004FF48071124800F08CFF01224FF4007176
:100E9C000F4800F086FF01224FF480610C4800F0EF
:100EAC0080FF01224FF40061094800F07AFF012213
:100EBC004FF48051064800F074FF01224FF40051AA
:100ECC00034800F06EFF00BF00BF0837BD4680BD71
:100EDC000008014080B582B000AF78607B68032BBE
:100EEC007AD801A252F823F0050F00083D0F000834
:100EFC00750F0008AD0F000800220121394800F0E1
:100F0C0050FF01220221374800F04BFF012204213F
:100F1C00344800F046FF01220821324800F041FF1E
:100F2C00314A7B6852F823301846FFF7DDFD54E058
:100F3C00012201212B4800F034FF00220221294814
:100F4C0000F02FFF01220421264800F02AFF012285
:100F5C000821244800F025FF234A7B6852F82330EF
:100F6C001846FFF7C1FD38E0012201211D4800F0B1
:100F7C0018FF012202211B4800F013FF002204215C
:100F8C00184800F00EFF01220821164800F009FF56
:100F9C00154A7B6852F823301846FFF7A5FD1CE074
:100FAC00012201210F4800F0FCFE012202210D4814
:100FBC0000F0F7FE012204210A4800F0F2FE0022A4
:100FCC000821084800F0EDFE074A7B6852F82330F0
:100FDC001846FFF789FD00E000BF00BF0837BD468B
:100FEC0080BD00BF000C0140AC00002080B483B079
:100FFC0000AF786039607B68184A82FB031292104C
:10100C00DB17D31A164A13607968144B83FB012340
:10101C009A10CB17D21A13469B0013445B00CA1AC2
:10102C000F4B5A603B680D4A82FB03129210DB1780
:10103C00D31A0B4A93603968084B83FB01239A102F
:10104C00CB17D21A13469B0013445B00CA1A044BED
:10105C00DA6000BF0C37BD4680BC704767666666B9
:10106C00AC00002080B500AF00F09AFB00F034F823
:10107C0000F06EF800F0B8F801220121134800F0DE
:10108C0090FE01220221114800F08BFE0122042166
:10109C000E4800F086FE012208210C4800F081FE6B
:1010AC0001221021094800F07CFE01222021074872
:1010BC0000F077FE064801F0D1FA064B01221A60C7
:1010CC00FFF7F6F8FFF70AFBFAE700BF000C014048
:1010DC00BC0000207C00002080B590B000AF07F170
:1010EC00180328220021184601F068FE3B1D00223F
:1010FC001A605A609A60DA601A610223BB6101239C
:10110C00BB621023FB6200237B6307F118031846B4
:10111C0000F078FE0346002B01D000F0DFF80F231F
:10112C007B600023BB600023FB6000233B6100233A
:10113C007B613B1D0021184601F0E4F80346002BAF
:10114C0001D000F0CBF800BF4037BD4680BD000099
:10115C0080B586B000AF07F1080300221A605A6010
:10116C009A60DA603B4600221A605A601D4B4FF0C1
:10117C0080421A601B4B41F63F725A60194B002299
:10118C009A60184B0922DA60164B00221A61154B33
:10119C0000229A61134801F011FA0346002B01D08A
:1011AC0000F09CF84FF48053BB6007F1080319461C
:1011BC000C4801F08FFB0346002B01D000F08EF899
:1011CC0000233B6000237B603B461946054801F039
:1011DC0067FD0346002B01D000F080F800BF1837E4
:1011EC00BD4680BDBC00002080B586B000AF07F1C5
:1011FC00080300221A605A609A60DA602E4B9B69D1
:10120C002D4A43F0040393612B4B9B6903F00403B9
:10121C007B607B68284B9B69274A43F008039361EA
:10122C00254B9B6903F008033B603B68002241F6A9
:10123C00FE71224800F0B5FD00223F21204800F04D
:10124C00B0FD41F6FE73BB600123FB6000233B61E4
:10125C0002237B6107F108031946184800F010FCC3
:10126C003F23BB600123FB6000233B6102237B61B6
:10127C0007F108031946124800F002FC4FF4005322
:10128C00BB600023FB6001233B6107F10803194697
:10129C000A4800F0F5FB4FF46073BB600023FB6061
:1012AC0001233B6107F108031946054800F0E8FBF0
:1012BC0000BF1837BD4680BD001002400008014039
:1012CC00000C014080B582B000AF786000F060F88F
:1012DC00FEF760FF00BF0837BD4680BD80B400AF8D
:1012EC0072B600BFFEE7000080B483B000AF786038
:1012FC007B68084A82FB03129210DB17D31A064A4A
:10130C001360064B00221A6000BF0C37BD4680BC30
:10131C00704700BF67666666840000208800002066
:10132C0080B483B000AF78607B68084A82FB0312FC
:10133C009210DB17D31A064A1360064B00221A6070
:10134C0000BF0C37BD4680BC704700BF6766666641
:10135C008C0000209000002080B483B000AF786037
:10136C007B68084A82FB03129210DB17D31A064AD9
:10137C001360064B00221A6000BF0C37BD4680BCC0
:10138C00704700BF676666669400002098000020D6
:10139C0080B400AF294B1B68002B0BDD274B1B685F
:1013AC00013B264A1360254B1B68002B02DC244BA7
:1013BC0001221A60234B1B68002B0BDD214B1B6891
:1013CC00013B204A13601F4B1B68002B02DC1E4B99
:1013DC0001221A601D4B1B68002B0BDD1B4B1B687D
:1013EC00013B1A4A1360194B1B68002B02DC184B8B
:1013FC0001221A60174B1B68002B0BDD154B1B6869
:10140C00013B144A1360134B1B68002B02DC124B7C
:10141C0001221A60114B1B68002B0BDD0F4B1B6854
:10142C00013B0E4A13600D4B1B68002B02DC0C4B6E
:10143C0001221A6000BFBD4680BC704784000020AA
:10144C00880000208C0000209000002094000020D8
:10145C00980000209C000020A0000020A400002088
:10146C00A800002080B485B000AF154B9B69144ACE
:10147C0043F001039361124B9B6903F00103BB60C2
:10148C00BB680F4BDB690E4A43F08053D3610C4BA6
:10149C00DB6903F080537B607B680A4B5B68FB6005
:1014AC00FB6823F0E063FB60FB6843F08063FB6048
:1014BC00044AFB68536000BF1437BD4680BC7047BC
:1014CC00001002400000014080B584B000AF78608D
:1014DC007B681B68B3F1804F13D10C4BDB690B4A53
:1014EC0043F00103D361094BDB6903F00103FB609B
:1014FC00FB68002200211C2000F08BFA1C2000F05D
:10150C00A4FA00BF1037BD4680BD00BF00100240DA
:10151C0080B400AFFEE780B400AFFEE780B400AF4C
:10152C00FEE780B400AFFEE780B400AFFEE780B406
:10153C0000AF00BFBD4680BC704780B400AF00BF99
:10154C00BD4680BC704780B400AF00BFBD4680BCB8
:10155C00704780B500AF00F069F900BF80BD000096
:10156C0080B500AF024801F0C5F800BF80BD00BFD8
:10157C00BC00002080B400AF00BFBD4680BC7047EB
:10158C0080B500AF01220221074800F00AFC0022BE
:10159C000421054800F005FC00220821024800F057
:1015AC0000FC00BF80BD00BF0008014080B500AF4B
:1015BC0000220221074800F0F4FB01220421054817
:1015CC0000F0EFFB00220821024800F0EAFB00BF0C
:1015DC0080BD00BF0008014080B500AF0022022191
:1015EC00074800F0DEFB00220421054800F0D9FB7F
:1015FC0001220821024800F0D4FB00BF80BD00BFCF
:10160C000008014080B500AF01221021074800F00E
:10161C00C8FB00222021054800F0C3FB002240211A
:10162C00024800F0BEFB00BF80BD00BF00080140B7
:10163C0080B500AF00221021074800F0B2FB012258
:10164C002021054800F0ADFB00224021024800F0AB
:10165C00A8FB00BF80BD00BF0008014080B500AFF3
:10166C0000221021074800F09CFB00222021054895
:10167C0000F097FB01224021024800F092FB00BFD2
:10168C0080BD00BF0008014080B500AF02210E48AC
:10169C0000F09FFB10210C4800F09BFB0022042162
:1016AC00094800F07EFB00220821074800F079FB76
:1016BC0000222021044800F074FB00224021024843
:1016CC0000F06FFB00BF80BD0008014080B500AF8B
:1016DC0004210E4800F07DFB20210C4800F079FB22
:1016EC0000220221094800F05CFB00220821074877
:1016FC0000F057FB00221021044800F052FB00229E
:10170C004021024800F04DFB00BF80BD00080140A5
:10171C0080B500AF08210E4800F05BFB40210C485F
:10172C0000F057FB00220421094800F03AFB00228C
:10173C000221074800F035FB00221021044800F07C
:10174C0030FB00222021024800F02BFB00BF80BDA3
:10175C0000080140FFF70EFF0B480C490C4A002310
:10176C0002E0D458C4500433C4188C42F9D3094A4B
:10177C00094C002301E013600432A242FBD301F0B8
:10178C00F9FAFFF76FFC70470000002054000020AE
:10179C001C2E00085400002008010020FEE7000069
:1017AC0080B500AF084B1B68074A43F01003136069
:1017BC00032000F023F90F2000F008F8FFF752FE89
:1017CC000023184680BD00BF0020024080B582B0C7
:1017DC0000AF7860124B1A68124B1B7819464FF405
:1017EC007A73B3FBF1F3B2FBF3F3184600F03BF959
:1017FC000346002B01D001230EE07B680F2B0AD887
:10180C00002279684FF0FF3000F003F9064A7B683C
:10181C001360002300E0012318460837BD4680BD45
:10182C0048000020500000204C00002080B400AF85
:10183C00054B1B781A46054B1B681344034A13606F
:10184C0000BFBD4680BC7047500000200401002042
:10185C0080B400AF024B1B681846BD4680BC704775
:10186C000401002080B485B000AF78607B6803F081
:10187C000703FB600C4BDB68BB60BA684FF6FF03D9
:10188C001340BB60FB681A02BB68134343F0BF6391
:10189C0043F40033BB60044ABB68D36000BF143709
:1018AC00BD4680BC704700BF00ED00E080B400AFC7
:1018BC00044BDB681B0A03F007031846BD4680BCCB
:1018CC00704700BF00ED00E080B483B000AF03466A
:1018DC00FB7197F90730002B0BDBFB7903F01F0230
:1018EC00064997F907305B09012000FA02F241F82A
:1018FC00232000BF0C37BD4680BC704700E100E0E0
:10190C0080B483B000AF03463960FB7197F90730A0
:10191C00002B0ADB3B68DAB20C4997F9073012014D
:10192C00D2B20B4483F800230AE03B68DAB20849D0
:10193C00FB7903F00F03043B1201D2B20B441A766D
:10194C0000BF0C37BD4680BC704700BF00E100E013
:10195C0000ED00E080B489B000AFF860B9607A6047
:10196C00FB6803F00703FB61FB69C3F10703042B5E
:10197C0028BF0423BB61FB690433062B02D9FB6926
:10198C00033B00E000237B614FF0FF32BB6902FA9E
:10199C0003F3DA43BB681A407B699A404FF0FF317E
:1019AC007B6901FA03F3D9437B680B401343184658
:1019BC002437BD4680BC704780B582B000AF7860DC
:1019CC007B68013BB3F1807F01D301230FE00A4A0E
:1019DC007B68013B53600F214FF0FF30FFF790FF06
:1019EC00054B00229A60044B07221A60002318460C
:1019FC000837BD4680BD00BF10E000E080B582B066
:101A0C0000AF78607868FFF72DFF00BF0837BD4640
:101A1C0080BD80B586B000AF0346B9607A60FB73B9
:101A2C0000237B61FFF742FF78617A68B9687869B7
:101A3C00FFF790FF024697F90F3011461846FFF753
:101A4C005FFF00BF1837BD4680BD80B582B000AFC8
:101A5C000346FB7197F907301846FFF735FF00BFB7
:101A6C000837BD4680BD80B582B000AF786078681D
:101A7C00FFF7A2FF034618460837BD4680BD00009D
:101A8C0080B48BB000AF7860396000237B62002398
:101A9C003B6248E101227B6A02FA03F3FB613B687B
:101AAC001B68FA691340BB61BA69FB699A4240F042
:101ABC0037813B685B68A34A93425ED0A14A93424C
:101ACC0075D8A14A934258D09F4A93426FD89F4AE7
:101ADC00934252D09D4A934269D89D4A93424CD02E
:101AEC009B4A934263D89B4A934246D0994A93426D
:101AFC005DD8122B2AD8122B59D801A252F823F0F8
:101B0C00871B0008611B0008731B0008B51B00082D
:101B1C00BB1B0008BB1B0008BB1B0008BB1B000841
:101B2C00BB1B0008BB1B0008BB1B0008BB1B000831
:101B3C00BB1B0008BB1B0008BB1B0008BB1B000821
:101B4C00BB1B0008691B00087D1B0008824A9342DE
:101B5C0013D02CE03B68DB683B6229E03B68DB6818
:101B6C0004333B6224E03B68DB6808333B621FE0D4
:101B7C003B68DB680C333B621AE03B689B68002BCC
:101B8C0002D104233B6213E03B689B68012B05D117
:101B9C0008233B627B68FA691A6109E008233B62FF
:101BAC007B68FA695A6103E000233B6200E000BFE6
:101BBC00BB69FF2B01D87B6801E07B6804337B6138
:101BCC00BB69FF2B02D87B6A9B0002E07B6A083B57
:101BDC009B003B617B691A680F213B6901FA03F397
:101BEC00DB431A40396A3B6901FA03F31A437B69F8
:101BFC001A603B685B6803F08053002B00F0908008
:101C0C00564B9B69554A43F001039361534B9B69B7
:101C1C0003F00103BB60BB68514A7B6A9B0802332B
:101C2C0052F82330FB607B6A03F003039B000F2206
:101C3C0002FA03F3DB43FA681340FB607B68494A02
:101C4C0093420DD07B68484A934207D07B68474A41
:101C5C00934201D1022304E0032302E0012300E0BC
:101C6C0000237A6A02F0030292009340FA6813434D
:101C7C00FB603B497B6A9B080233FA6841F82320DE
:101C8C003B685B6803F48013002B06D0384B9A68D2
:101C9C003749BB6913438B6006E0354B9A68BB69C7
:101CAC00DB43334913408B603B685B6803F40013E0
:101CBC00002B06D02E4BDA682D49BB691343CB6041
:101CCC0006E02B4BDA68BB69DB4329491340CB6038
:101CDC003B685B6803F40033002B06D0244B5A6836
:101CEC002349BB6913434B6006E0214B5A68BB691F
:101CFC00DB431F4913404B603B685B6803F4803344
:101D0C00002B06D01A4B1A681949BB6913430B6098
:101D1C0006E0174B1A68BB69DB43154913400B608F
:101D2C007B6A01337B623B681A687B6A22FA03F395
:101D3C00002B7FF4AFAE00BF00BF2C37BD4680BC7C
:101D4C00704700BF0000321000003110000022105C
:101D5C0000002110000012100000111000100240B1
:101D6C000000014000080140000C0140001001403F
:101D7C000004014080B485B000AF78600B467B80D6
:101D8C007B689A687B881340002B02D00123FB737D
:101D9C0001E00023FB73FB7B18461437BD4680BC67
:101DAC00704780B483B000AF78600B467B801346DD
:101DBC007B707B78002B03D07A887B681A6103E0F8
:101DCC007B881A047B681A6100BF0C37BD4680BC47
:101DDC00704780B485B000AF78600B467B807B6821
:101DEC00DB68FB607A88FB6813401A04FB68D943F4
:101DFC007B880B401A437B681A6100BF1437BD46C1
:101E0C0080BC704780B586B000AF78607B68002BD3
:101E1C0001D101236CE27B681B6803F00103002BEA
:101E2C0000F08780924B5B6803F00C03042B0CD002
:101E3C008F4B5B6803F00C03082B12D18C4B5B6847
:101E4C0003F48033B3F5803F0BD1894B1B6803F44B
:101E5C000033002B6CD07B685B68002B68D10123AE
:101E6C0046E27B685B68B3F5803F06D1804B1B680C
:101E7C007F4A43F4803313602EE07B685B68002B51
:101E8C000CD17B4B1B687A4A23F480331360784B5C
:101E9C001B68774A23F4802313601DE07B685B6822
:101EAC00B3F5A02F0CD1724B1B68714A43F48023FD
:101EBC0013606F4B1B686E4A43F4803313600BE066
:101ECC006B4B1B686A4A23F480331360684B1B68A6
:101EDC00674A23F4802313607B685B68002B13D064
:101EEC00FFF7B6FC386108E0FFF7B2FC02463B692D
:101EFC00D31A642B01D90323FAE15D4B1B6803F45D
:101F0C000033002BF0D014E0FFF7A2FC386108E09E
:101F1C00FFF79EFC02463B69D31A642B01D90323BD
:101F2C00E6E1534B1B6803F40033002BF0D100E0C7
:101F3C0000BF7B681B6803F00203002B63D04C4B83
:101F4C005B6803F00C03002B0BD0494B5B6803F070
:101F5C000C03082B1CD1464B5B6803F48033002B1D
:101F6C0016D1434B1B6803F00203002B05D07B6892
:101F7C001B69012B01D00123BAE13D4B1B6823F0F7
:101F8C00F8027B685B69DB00394913430B603AE06C
:101F9C007B681B69002B20D0364B01221A60FFF79F
:101FAC0057FC386108E0FFF753FC02463B69D31A33
:101FBC00022B01D903239BE12D4B1B6803F0020379
:101FCC00002BF0D02A4B1B6823F0F8027B685B696E
:101FDC00DB00274913430B6015E0264B00221A60E7
:101FEC00FFF736FC386108E0FFF732FC02463B692C
:101FFC00D31A022B01D903237AE11D4B1B6803F082
:10200C000203002BF0D17B681B6803F00803002B44
:10201C003AD07B689B69002B19D0174B01221A60B0
:10202C00FFF716FC386108E0FFF712FC02463B692B
:10203C00D31A022B01D903235AE10D4B5B6A03F02F
:10204C000203002BF0D0012000F09AFA1CE00A4B9E
:10205C0000221A60FFF7FCFB38610FE0FFF7F8FB7A
:10206C0002463B69D31A022B08D9032340E100BF77
:10207C000010024000004242800442429E4B5B6AC8
:10208C0003F00203002BE9D17B681B6803F0040307
:10209C00002B00F0A6800023FB75974BDB6903F047
:1020AC008053002B0DD1944BDB69934A43F0805342
:1020BC00D361914BDB6903F08053BB60BB68012398
:1020CC00FB758E4B1B6803F48073002B18D18B4B64
:1020DC001B688A4A43F480731360FFF7B9FB3861BD
:1020EC0008E0FFF7B5FB02463B69D31A642B01D914
:1020FC000323FDE0814B1B6803F48073002BF0D0AD
:10210C007B68DB68012B06D17B4B1B6A7A4A43F058
:10211C00010313622DE07B68DB68002B0CD1764B3E
:10212C001B6A754A23F001031362734B1B6A724AD4
:10213C0023F0040313621CE07B68DB68052B0CD1D5
:10214C006D4B1B6A6C4A43F0040313626A4B1B6AA7
:10215C00694A43F0010313620BE0674B1B6A664A42
:10216C0023F001031362644B1B6A634A23F00403DC
:10217C0013627B68DB68002B15D0FFF769FB3861B5
:10218C000AE0FFF765FB02463B69D31A41F288323D
:10219C00934201D90323ABE0574B1B6A03F00203B4
:1021AC00002BEED014E0FFF753FB38610AE0FFF789
:1021BC004FFB02463B69D31A41F28832934201D954
:1021CC00032395E04C4B1B6A03F00203002BEED16A
:1021DC00FB7D012B05D1484BDB69474A23F080532B
:1021EC00D3617B68DB69002B00F08180424B5B681C
:1021FC0003F00C03082B61D07B68DB69022B46D102
:10220C003F4B00221A60FFF723FB386108E0FFF711
:10221C001FFB02463B69D31A022B01D9032367E04B
:10222C00354B1B6803F00073002BF0D17B681B6AE5
:10223C00B3F5803F08D1304B5B6823F400327B68E8
:10224C009B682D4913434B602B4B5B6823F4741232
:10225C007B68196A7B685B6A0B43274913434B60A5
:10226C00274B01221A60FFF7F3FA386108E0FFF7F9
:10227C00EFFA02463B69D31A022B01D9032337E04C
:10228C001D4B1B6803F00073002BF0D02FE01C4B90
:10229C0000221A60FFF7DCFA386108E0FFF7D8FA81
:1022AC0002463B69D31A022B01D9032320E0124BBF
:1022BC001B6803F00073002BF0D118E07B68DB691E
:1022CC00012B01D1012313E00B4B5B68FB60FB6816
:1022DC0003F480327B681B6A9A4206D1FB6803F4D4
:1022EC0070127B685B6A9A4201D0012300E00023E4
:1022FC0018461837BD4680BD0010024000700040E3
:10230C006000424280B584B000AF786039607B6871
:10231C00002B01D10123D0E06A4B1B6803F00703AB
:10232C003A689A4210D9674B1B6823F0070265493B
:10233C003B6813430B60634B1B6803F007033A685D
:10234C009A4201D00123B8E07B681B6803F00203BA
:10235C00002B20D07B681B6803F00403002B05D0F6
:10236C00594B5B68584A43F4E06353607B681B68C5
:10237C0003F00803002B05D0534B5B68524A43F41F
:10238C0060535360504B5B6823F0F0027B689B6892
:10239C004D4913434B607B681B6803F00103002B12
:1023AC0040D07B685B68012B07D1474B1B6803F45B
:1023BC000033002B15D101237FE07B685B68022B77
:1023CC0007D1414B1B6803F00073002B09D101238B
:1023DC0073E03D4B1B6803F00203002B01D101237A
:1023EC006BE0394B5B6823F003027B685B68364912
:1023FC0013434B60FFF72CFAF8600AE0FFF728FA5A
:10240C000246FB68D31A41F28832934201D9032366
:10241C0053E02D4B5B6803F00C027B685B689B0000
:10242C009A42EBD1274B1B6803F007033A689A4298
:10243C0010D2244B1B6823F0070222493B6813433C
:10244C000B60204B1B6803F007033A689A4201D0DB
:10245C00012332E07B681B6803F00403002B08D0D7
:10246C00194B5B6823F4E0627B68DB681649134305
:10247C004B607B681B6803F00803002B09D0124BE0
:10248C005B6823F460527B681B69DB000E491343C5
:10249C004B6000F021F802460B4B5B681B0903F004
:1024AC000F030A49CB5C22FA03F3094A1360094B68
:1024BC001B681846FFF78AF9002318461037BD46EB
:1024CC0080BD00BF0020024000100240F02D00082B
:1024DC00480000204C00002080B487B000AF0023DF
:1024EC00FB600023BB6000237B6100237B60002327
:1024FC003B611E4B5B68FB60FB6803F00C03042B19
:10250C0002D0082B03D027E0194B3B6127E0FB6876
:10251C009B0C03F00F03174AD35C7B60FB6803F43E
:10252C008033002B10D0114B5B685B0C03F0010364
:10253C00114AD35CBB607B680D4A02FB03F2BB689B
:10254C00B2FBF3F37B6104E07B680C4A02FB03F300
:10255C007B617B693B6102E0054B3B6100BF3B69E2
:10256C0018461C37BD4680BC704700BF00100240A7
:10257C0000127A00002E0008102E000800093D0001
:10258C0080B485B000AF78600A4B1B680A4AA2FB86
:10259C0003235B0A7A6802FB03F3FB6000BFFB6852
:1025AC005A1EFA60002BF9D100BF00BF1437BD468C
:1025BC0080BC704748000020D34D621080B582B0BB
:1025CC0000AF78607B68002B01D1012341E07B6870
:1025DC0093F83D30DBB2002B06D17B68002283F8E8
:1025EC003C207868FEF770FF7B68022283F83D2060
:1025FC007B681A687B6804331946104600F056FA5B
:10260C007B68012283F846207B68012283F83E20F8
:10261C007B68012283F83F207B68012283F84020ED
:10262C007B68012283F841207B68012283F84220D9
:10263C007B68012283F843207B68012283F84420C5
:10264C007B68012283F845207B68012283F83D20BA
:10265C00002318460837BD4680BD000080B485B005
:10266C0000AF78607B6893F83D30DBB2012B01D072
:10267C00012335E07B68022283F83D207B681B68D0
:10268C00DA687B681B6842F00102DA607B681B68C1
:10269C00164A934209D07B681B68B3F1804F04D073
:1026AC007B681B68124A934211D17B681B689B683C
:1026BC0003F00703FB60FB68062B10D07B681B68DC
:1026CC001A687B681B6842F001021A6007E07B689D
:1026DC001B681A687B681B6842F001021A600023B1
:1026EC0018461437BD4680BC704700BF002C014013
:1026FC000004004080B584B000AF78607B681B6834
:10270C00DB68FB607B681B681B69BB60BB6803F004
:10271C000203002B20D0FB6803F00203002B1BD01C
:10272C007B681B686FF002021A617B6801221A77C2
:10273C007B681B689B6903F00303002B03D078684C
:10274C0000F098F905E0786800F08BF9786800F0F3
:10275C009AF97B6800221A77BB6803F00403002BFC
:10276C0020D0FB6803F00403002B1BD07B681B6894
:10277C006FF004021A617B6802221A777B681B686F
:10278C009B6903F44073002B03D0786800F072F956
:10279C0005E0786800F065F9786800F074F97B68FA
:1027AC0000221A77BB6803F00803002B20D0FB68CB
:1027BC0003F00803002B1BD07B681B686FF008022A
:1027CC001A617B6804221A777B681B68DB6903F04B
:1027DC000303002B03D0786800F04CF905E078680F
:1027EC0000F03FF9786800F04EF97B6800221A7708
:1027FC00BB6803F01003002B20D0FB6803F0100320
:10280C00002B1BD07B681B686FF010021A617B6871
:10281C0008221A777B681B68DB6903F44073002B72
:10282C0003D0786800F026F905E0786800F019F913
:10283C00786800F028F97B6800221A77BB6803F0EF
:10284C000103002B0CD0FB6803F00103002B07D015
:10285C007B681B686FF001021A617868FEF732FD25
:10286C00BB6803F08003002B0CD0FB6803F08003E3
:10287C00002B07D07B681B686FF080021A617868A8
:10288C0000F06FFABB6803F04003002B0CD0FB6820
:10289C0003F04003002B07D07B681B686FF04002ED
:1028AC001A61786800F0F8F8BB6803F02003002B7D
:1028BC000CD0FB6803F02003002B07D07B681B684F
:1028CC006FF020021A61786800F042FA00BF1037EE
:1028DC00BD4680BD80B584B000AF78603960002300
:1028EC00FB737B6893F83C30012B01D10223B4E0DD
:1028FC007B68012283F83C207B68022283F83D2010
:10290C007B681B689B68BB60BB6823F07703BB606C
:10291C00BB6823F47F43BB607B681B68BA689A6012
:10292C003B681B68B3F5005F3ED0B3F5005F00F267
:10293C008780B3F5805F00F08680B3F5805F7FD829
:10294C00702B1AD0702B7BD8602B50D0602B77D883
:10295C00502B3CD0502B73D8402B58D0402B6FD8D9
:10296C00302B64D0302B6BD8202B60D0202B67D829
:10297C00002B5CD0102B5AD062E07B6818683B6847
:10298C0099683B685A683B68DB6800F06AF97B68B9
:10299C001B689B68BB60BB6843F07703BB607B68BC
:1029AC001B68BA689A604FE07B6818683B68996846
:1029BC003B685A683B68DB6800F053F97B681B681E
:1029CC009A687B681B6842F480429A603CE07B68A2
:1029DC0018683B6859683B68DB681A4600F0CAF80F
:1029EC007B681B685021184600F021F92CE07B68AD
:1029FC0018683B6859683B68DB681A4600F0E8F8D1
:102A0C007B681B686021184600F011F91CE07B689C
:102A1C0018683B6859683B68DB681A4600F0AAF8EE
:102A2C007B681B684021184600F001F90CE07B68BC
:102A3C001A683B681B681946104600F0F8F803E06A
:102A4C000123FB7300E000BF7B68012283F83D206B
:102A5C007B68002283F83C20FB7B18461037BD4670
:102A6C0080BD80B483B000AF786000BF0C37BD462A
:102A7C0080BC704780B483B000AF786000BF0C3767
:102A8C00BD4680BC704780B483B000AF786000BF97
:102A9C000C37BD4680BC704780B483B000AF786003
:102AAC0000BF0C37BD4680BC7047000080B485B0B9
:102ABC0000AF786039607B681B68FB607B682B4AD1
:102ACC00934207D07B68B3F1804F03D07B68284AD0
:102ADC00934208D1FB6823F07003FB603B685B6892
:102AEC00FA681343FB607B68204A934207D07B68EB
:102AFC00B3F1804F03D07B681D4A934208D1FB6829
:102B0C0023F44073FB603B68DB68FA681343FB609B
:102B1C00FB6823F080023B685B691343FB607B68B6
:102B2C00FA681A603B689A687B68DA623B681A68D4
:102B3C007B689A627B680D4A934203D13B681A69A1
:102B4C007B681A637B6801225A617B681B6903F0FE
:102B5C000103002B05D07B681B6923F001027B6805
:102B6C001A6100BF1437BD4680BC7047002C014071
:102B7C000004004080B487B000AFF860B9607A60A0
:102B8C00FB681B6A7B61FB681B6A23F00102FB6814
:102B9C001A62FB689B693B613B6923F0F0033B6164
:102BAC007B681B013A6913433B617B6923F00A0381
:102BBC007B617A69BB6813437B61FB683A699A61F4
:102BCC00FB687A691A6200BF1C37BD4680BC70472F
:102BDC0080B487B000AFF860B9607A60FB681B6A9C
:102BEC007B61FB681B6A23F01002FB681A62FB68AE
:102BFC009B693B613B6923F470433B617B681B031E
:102C0C003A6913433B617B6923F0A0037B61BB688A
:102C1C001B017A6913437B61FB683A699A61FB6813
:102C2C007A691A6200BF1C37BD4680BC704780B4FD
:102C3C0085B000AF786039607B689B68FB60FB688F
:102C4C0023F07003FB603A68FB68134343F00703FF
:102C5C00FB607B68FA689A6000BF1437BD4680BC85
:102C6C00704780B487B000AFF860B9607A603B60A1
:102C7C00FB689B687B617B6923F47F437B613B68CA
:102C8C001A027B681A43BB6813437A6913437B614E
:102C9C00FB687A699A6000BF1C37BD4680BC7047E0
:102CAC0080B485B000AF786039607B6893F83C30B5
:102CBC00012B01D1022341E07B68012283F83C20E7
:102CCC007B68022283F83D207B681B685B68FB6095
:102CDC007B681B689B68BB60FB6823F07003FB6020
:102CEC003B681B68FA681343FB607B681B68FA68D7
:102CFC005A607B681B68144A934209D07B681B6836
:102D0C00B3F1804F04D07B681B68104A93420CD1FE
:102D1C00BB6823F08003BB603B685B68BA681343F5
:102D2C00BB607B681B68BA689A607B68012283F879
:102D3C003D207B68002283F83C2000231846143782
:102D4C00BD4680BC704700BF002C01400004004011
:102D5C0080B483B000AF786000BF0C37BD4680BC38
:102D6C00704780B483B000AF786000BF0C37BD46AD
:102D7C0080BC704770B500260C4D0D4C641BA41024
:102D8C00A64209D100F022F800260A4D0A4C641B19
:102D9C00A410A64205D170BD55F8043B98470136E6
:102DAC00EEE755F8043B98470136F2E7142E00087D
:102DBC00142E0008142E0008182E00080346024496
:102DCC00934200D1704703F8011BF9E7F8B500BF37
:102DDC00F8BC08BC9E467047F8B500BFF8BC08BCF0
:042DEC009E46704748
:102DF00000000000000000000102030406070809AB
:102E000002030405060708090A0B0C0D0E0F10102B
:042E100001020000BB
:042E14003101000880
:042E18000D010008A0
:102E1C0001000000000000000000000001000000A4
:102E2C000000000000000000010000000000000095
:102E3C000000000001000000000000000000000085
:102E4C00C8000000010000000100000005000000A7
:102E5C00020000000300000000127A0010000000C5
:042E6C000100000061
:040000050800176177
:00000001FF
