:020000040800F2
:1000000000280020B1190008251700082B17000848
:1000100031170008371700083D17000800000000DE
:10002000000000000000000000000000431700086E
:100030004F170008000000005B1700086717000852
:10004000F9190008F9190008F9190008F919000848
:10005000F9190008F9190008F9190008F919000838
:10006000F9190008F9190008F9190008F919000828
:10007000F9190008F9190008F9190008F919000818
:10008000F9190008F9190008F9190008F919000808
:10009000F9190008F9190008F9190008F9190008F8
:1000A000F9190008F9190008F9190008F9190008E8
:1000B00075170008F919000800000000F919000878
:1000C000F91900080000000000000000F9190008FC
:1000D00000000000F9190008F919000800000000EC
:1000E000F9190008F9190008F919000800000000C2
:1000F0000000000000000000000000000000000000
:0C01000000000000000000005FF808F1A3
:10010C0010B5054C237833B9044B13B10448AFF345
:10011C0000800123237010BD580000200000000057
:10012C002830000808B5034B1BB103490348AFF353
:10013C00008008BD000000005C0000202830000892
:10014C0080B483B000AF7860094A7B6852F82330E2
:10015C00012B06D1064A7B68002142F823100123AB
:10016C0000E0002318460C37BD4680BC704700BF2A
:10017C007400002080B483B000AF7860044A7B68C0
:10018C00012142F8231000BF0C37BD4680BC7047DC
:10019C007400002080B582B000AF00237B6073E058
:1001AC003D4A7B6852F823203C497B6841F8232068
:1001BC003B4A7B6852F8232037497B6841F823205F
:1001CC007B68002B06D18021364801F0FBFE0346EC
:1001DC001A4611E07B68012B07D14FF4807131482E
:1001EC0001F0F0FE03461A4606E04FF400712D486C
:1001FC0001F0E8FE03461A4629497B6841F82320A2
:10020C00264A7B6852F8232023497B6851F8233017
:10021C009A4236D1204A7B6852F8232020497B68C9
:10022C0051F823309A422CD11F4A7B6852F8232074
:10023C001B497B6851F823309A4214D0184A7B68CA
:10024C0052F8232018497B6841F82320144A7B6814
:10025C0052F82330002B14D17868FFF78BFF134B27
:10026C00C8221A600DE0114B1B68013B0F4A13604A
:10027C000E4B1B68002B04D10B4A7B68012142F802
:10028C0023107B6801337B607B68022B88DD00BF09
:10029C0000BF0837BD4680BD0C00002000000020C8
:1002AC0018000020000C0140240000203000002029
:1002BC002DE9B04F82B000AFAA4B1B68013B042B59
:1002CC0000F2C88101A252F823F000BF41030008DC
:1002DC00FF030008B7040008AD050008ED02000894
:1002EC0000F0DCFFA04B01221A60A04B05221A6023
:1002FC009F4B02221A609F4B03221A60994B0122DA
:10030C001A609A4B1B689C4A13609C494FF0000280
:10031C004FF00003C1E90023934B1B68964A126807
:10032C001146184600F05AFEFA220021944800F0BB
:10033C00F5FF98E1914BD3E900234FF47A7303FB5B
:10034C0002F3002219468F4800F0E8FF8B4BD3E9EB
:10035C0000234FF47A7303FB02F3002219468A48F8
:10036C0000F0DCFF834B1B6818464FEAE071834BAF
:10037C00D3E9002384183C6041EB03037B607F4B83
:10038C00D7E90012C3E90012764B02221A60002052
:10039C00FFF7D6FE0346012B40F05E8100F07EFF96
:1003AC0001F0DCFA704B02221A6074494FF0000223
:1003BC004FF00003C1E900236B4B1B686B4A1268BA
:1003CC001146184600F00AFEFA2200216C4800F093
:1003DC00A5FF4FF4FA7200216C4800F09FFF002239
:1003EC0041F658316A4800F099FF5E4B06221A60BC
:1003FC0032E1624BD3E900234FF47A7303FB02F32F
:10040C00002219465F4800F089FF5C4BD3E90023BA
:10041C004FF47A7303FB02F3002219465D4800F097
:10042C007DFF534B1B6818464FEAE071534BD3E9E1
:10043C00002310EB020A41EB030B504BC3E900AB5A
:10044C00484B03221A600020FFF77AFE0346012B6B
:10045C0040F0048100F022FF01F080FA424B0222AE
:10046C001A6046494FF000024FF00003C1E9002327
:10047C003D4B1B683D4A12681146184600F0AEFD14
:10048C00FA2200213E4800F049FF4FF4FA72002195
:10049C003E4800F043FF002241F658313C4800F042
:1004AC003DFF304B06221A60D8E0344BD3E90023D1
:1004BC004FF47A7303FB02F300221946364800F01E
:1004CC002DFF2E4BD3E900234FF47A7303FB02F379
:1004DC0000221946314800F021FF264B1B681846B4
:1004EC004FEAE071254BD3E9002310EB020841EBF6
:1004FC000309224BC3E900891A4B04221A6000201D
:10050C00FFF71EFE0346012B40F0AA8000F0C6FE4A
:10051C0001F024FA144B02221A6018494FF0000221
:10052C004FF00003C1E900230F4B1B680F4A126800
:10053C001146184600F052FDFA220021104800F036
:10054C00EDFE4FF4FA720021104800F0E7FE002295
:10055C0041F658310E4800F0E1FE024B06221A60BB
:10056C007EE000BF80000020340000203C00002012
:10057C0040000020440000203800002088000020AB
:10058C00610A000895170008711800089D180008EA
:10059C00C50A000845180008ED17000819180008CE
:1005AC00334BD3E900234FF47A7303FB02F300229D
:1005BC001946304800F0B2FE2D4BD3E900234FF41E
:1005CC007A7303FB02F3002219462B4800F0A6FEB7
:1005DC002A4B1B6818464FEAE071254BD3E90023E0
:1005EC00841841EB0305224BC3E90045244B01223F
:1005FC001A600020FFF7A4FD0346012B32D100F056
:10060C004DFE01F0ABF91F4B02221A6018494FF056
:10061C0000024FF00003C1E900231A4B1B681A4A71
:10062C0012681146184600F0D9FCFA22002117482E
:10063C0000F074FE4FF4FA720021154800F06EFEC3
:10064C00002241F65831134800F068FE0C4B06228C
:10065C001A6007E000BF06E000BF04E000BF02E044
:10066C0000BF00E000BF00BF0837BD46BDE8B08F3B
:10067C0088000020C117000819180008400000204D
:10068C0080000020340000203C000020610A00089B
:10069C009D180008C50A000880B500AF934B1B6875
:1006AC00082B00F03B81082B00F3B881062B03D0FC
:1006BC00072B00F08E80B1E18D4B1B688D4A1268C0
:1006CC001146184600F08AFC0020FFF739FD03465E
:1006DC00012B1ED100F0E2FDFA220021864800F029
:1006EC001DFE4FF4FA720021844800F017FE804B77
:1006FC0003221A607E4B1B680221184600F06EFC28
:10070C00002241F658317E4800F008FE774B072254
:10071C001A600120FFF714FD0346012B34D1754BF1
:10072C001B68622B30DC734B1B68622B2CDC754B0B
:10073C001B68622B28DC00F0B1FD6E4B1B6801338B
:10074C006C4A13606F4B1B6801336E4A1360694B24
:10075C001B686D4A1360664B1B686A4A1268114627
:10076C00184600F03BFCFA220021634800F0D6FD4D
:10077C004FF4FA720021654800F0D0FD002241F6DA
:10078C0058315F4800F0CAFD0220FFF7D9FC034640
:10079C00012B40F0458100F081FD544B01221A6081
:1007AC005B494FF000024FF00003C1E90023514BAD
:1007BC001B68554A13604E4B1B68534A126811460E
:1007CC00184600F00BFCFA2200214B4800F0A6FD65
:1007DC0026E1474B1B684F4A12681146184600F039
:1007EC00FDFB0020FFF7ACFC0346012B1ED100F0F3
:1007FC0055FDFA220021404800F090FD4FF4FA72AA
:10080C000021454800F08AFD394B04221A60384B10
:10081C001B680321184600F0E1FB002241F6583119
:10082C00374800F07BFD314B08221A600120FFF79E
:10083C0087FC0346012B34D12E4B1B68622B30DC1A
:10084C002C4B1B68622B2CDC2E4B1B68622B28DC80
:10085C0000F024FD2F4B1B6801332E4A1360254BEF
:10086C001B680133234A1360224B1B68264A136012
:10087C001F4B1B68234A12681146184600F0AEFB4A
:10088C00FA2200211C4800F049FD4FF4FA720021B5
:10089C001E4800F043FD002241F65831184800F084
:1008AC003DFD0220FFF74CFC0346012B40F0BA80C3
:1008BC0000F0F4FC0D4B01221A6015494FF00002B8
:1008CC004FF00003C1E900230A4B1B680E4A13606A
:1008DC00074B1B680C4A12681146184600F07EFB49
:1008EC00FA220021044800F019FD9BE08000002052
:1008FC00340000203C000020610A0008E1180008C8
:10090C00C50A000844000020380000209D1800088B
:10091C00880000204000002025190008444B1B686B
:10092C00444A12681146184600F058FB0120FFF7A4
:10093C0007FC0346012B34D13F4B1B68622B30DC88
:10094C003D4B1B68622B2CDC3A4B1B68622B28DC62
:10095C0000F0A4FC374B1B680133364A1360364B4E
:10096C001B680133344A1360334B1B68334A1360E2
:10097C002F4B1B682F4A12681146184600F02EFBAD
:10098C00FA2200212E4800F0C9FC4FF4FA72002123
:10099C002C4800F0C3FC002241F658312A4800F0E4
:1009AC00BDFC0220FFF7CCFB0346012B1CD100F051
:1009BC0075FC264B01221A6025494FF000024FF0BE
:1009CC000003C1E900231C4B1B681C4A1360184B25
:1009DC001B681A4A12681146184600F0FFFAFA22F0
:1009EC000021174800F09AFC0020FFF7A9FB0346F2
:1009FC00012B19D100F052FC144B05221A600F4B3D
:100A0C0005221A600A4B01221A60094B1B680B4A1B
:100A1C0012681146184600F0E1FA05E000BF04E048
:100A2C0000BF02E000BF00E000BF00BF80BD00BF00
:100A3C0034000020440000203C000020380000203E
:100A4C00610A00089D180008C50A000880000020F3
:100A5C008800002080B500AF134B1B68042B17D106
:100A6C00114B00221A60114B1B68013B0F4A13609B
:100A7C000E4B1B68002B03D10D4B1B680B4A1360EC
:100A8C000C4B1B68094A12681146184600F0A6FA6E
:100A9C00054B1B68184600F015FA034B1B68013315
:100AAC00014A136000BF80BD840000203800002084
:100ABC003C0000203400002080B400AF044B052221
:100ACC001A60044B01221A6000BFBD4680BC7047FF
:100ADC00800000203400002080B582B000AF786028
:100AEC007B68092B00F2BE8101A252F823F000BFF3
:100AFC00250B0008790B0008CD0B0008210C000811
:100B0C00750C0008C90C00081D0D0008710D0008BB
:100B1C00C50D0008190E000800228021D04801F0F4
:100B2C0068FA00224FF48071CD4801F062FA00227D
:100B3C004FF40071CA4801F05CFA00224FF4806156
:100B4C00C74801F056FA00224FF40061C44801F086
:100B5C0050FA00224FF48051C14801F04AFA0122A8
:100B6C004FF40051BE4801F044FAA5E10122802166
:100B7C00BB4801F03EFA00224FF48071B84801F0F6
:100B8C0038FA00224FF40071B54801F032FA012214
:100B9C004FF48061B24801F02CFA01224FF400614D
:100BAC00AF4801F026FA01224FF48051AC4801F015
:100BBC0020FA01224FF40051A94801F01AFA7BE106
:100BCC0000228021A64801F014FA00224FF4807113
:100BDC00A34801F00EFA01224FF40071A04801F075
:100BEC0008FA00224FF480619D4801F002FA0022BD
:100BFC004FF400619A4801F0FCF901224FF4805146
:100C0C00974801F0F6F900224FF40051944801F096
:100C1C00F0F951E100228021914801F0EAF900221B
:100C2C004FF480718E4801F0E4F900224FF400710A
:100C3C008B4801F0DEF900224FF48061884801F006
:100C4C00D8F901224FF40061854801F0D2F9012254
:100C5C004FF48051824801F0CCF900224FF400513E
:100C6C007F4801F0C6F927E1012280217C4801F080
:100C7C00C0F900224FF48071794801F0BAF90022D2
:100C8C004FF40071764801F0B4F901224FF4806101
:100C9C00734801F0AEF901224FF40061704801F085
:100CAC00A8F900224FF480516D4801F0A2F90022FE
:100CBC004FF400516A4801F09CF9FDE000228021BC
:100CCC00674801F096F901224FF48071644801F0F5
:100CDC0090F900224FF40071614801F08AF900226A
:100CEC004FF480615E4801F084F901224FF40061F9
:100CFC005B4801F07EF900224FF48051584801F016
:100D0C0078F900224FF40051554801F072F9D3E004
:100D1C0000228021524801F06CF901224FF48071BD
:100D2C004F4801F066F900224FF400714C4801F075
:100D3C0060F900224FF48061494801F05AF9002211
:100D4C004FF40061464801F054F900224FF48051F1
:100D5C00434801F04EF900224FF40051404801F095
:100D6C0048F9A9E0002280213D4801F042F9002217
:100D7C004FF480713A4801F03CF900224FF40071B5
:100D8C00374801F036F901224FF48061344801F004
:100D9C0030F901224FF40061314801F02AF90122A7
:100DAC004FF480512E4801F024F901224FF40051E8
:100DBC002B4801F01EF97FE000228021284801F029
:100DCC0018F900224FF48071254801F012F9002225
:100DDC004FF40071224801F00CF900224FF48061AD
:100DEC001F4801F006F900224FF400611C4801F085
:100DFC0000F900224FF48051194801F0FAF8002252
:100E0C004FF40051164801F0F4F855E0002280210F
:100E1C00134801F0EEF800224FF48071104801F0F5
:100E2C00E8F800224FF400710D4801F0E2F80022BE
:100E3C004FF480610A4801F0DCF801224FF40061A4
:100E4C00074801F0D6F800224FF48051044801F015
:100E5C00D0F800224FF40051014801F0CAF82BE001
:100E6C000008014001228021154801F0C2F801223E
:100E7C004FF48071124801F0BCF801224FF400715C
:100E8C000F4801F0B6F801224FF480610C4801F0D4
:100E9C00B0F801224FF40061094801F0AAF80122D0
:100EAC004FF48051064801F0A4F801224FF4005190
:100EBC00034801F09EF800BF00BF0837BD4680BD57
:100ECC000008014080B582B000AF78607B68032BCE
:100EDC007AD801A252F823F0F50E00082D0F000865
:100EEC00650F00089D0F000800220121394801F010
:100EFC0080F801220221374801F07BF801220421FD
:100F0C00344801F076F801220821324801F071F8DA
:100F1C00314A7B6852F823301846FFF7DDFD54E068
:100F2C00012201212B4801F064F8002202212948FA
:100F3C0001F05FF801220421264801F05AF8012241
:100F4C000821244801F055F8234A7B6852F82330D5
:100F5C001846FFF7C1FD38E0012201211D4801F0C0
:100F6C0048F8012202211B4801F043F80022042119
:100F7C00184801F03EF801220821164801F039F812
:100F8C00154A7B6852F823301846FFF7A5FD1CE084
:100F9C00012201210F4801F02CF8012202210D48F9
:100FAC0001F027F8012204210A4801F022F800225E
:100FBC000821084801F01DF8074A7B6852F82330D5
:100FCC001846FFF789FD00E000BF00BF0837BD469B
:100FDC0080BD00BF000C01409400002080B483B0A1
:100FEC0000AF786039607B68184A82FB031292105C
:100FFC00DB17D31A164A13607968144B83FB012351
:10100C009A10CB17D21A13469B0013445B00CA1AD2
:10101C000F4B5A603B680D4A82FB03129210DB1790
:10102C00D31A0B4A93603968084B83FB01239A103F
:10103C00CB17D21A13469B0013445B00CA1A044BFD
:10104C00DA6000BF0C37BD4680BC704767666666C9
:10105C009400002080B500AF00F0CAFC00F016F838
:10106C0000F050F800F09AF8064801F01FFC064B0F
:10107C0005221A60FFF71CF9FFF70EFB00F020FAAF
:10108C00F8E700BFA40000208000002080B590B0DD
:10109C0000AF07F1180328220021184601F0B6FF13
:1010AC003B1D00221A605A609A60DA601A610223B2
:1010BC00BB610123BB621023FB6200237B6307F13E
:1010CC001803184600F0C6FF0346002B01D000F0B1
:1010DC00DFF80F237B600023BB600023FB60002341
:1010EC003B6100237B613B1D0021184601F032FA65
:1010FC000346002B01D000F0CBF800BF4037BD46B3
:10110C0080BD000080B586B000AF07F10803002257
:10111C001A605A609A60DA603B4600221A605A6084
:10112C001D4B4FF080421A601B4B41F63F725A60C8
:10113C00194B00229A60184B0922DA60164B0022D8
:10114C001A61154B00229A61134801F05FFB0346AC
:10115C00002B01D000F09CF84FF48053BB6007F1DA
:10116C00080319460C4801F0DDFC0346002B01D0A6
:10117C0000F08EF800233B6000237B603B46194651
:10118C00054801F0B5FE0346002B01D000F080F8B5
:10119C0000BF1837BD4680BDA400002080B586B0C6
:1011AC0000AF07F1080300221A605A609A60DA60F7
:1011BC002E4B9B692D4A43F0040393612B4B9B6987
:1011CC0003F004037B607B68284B9B69274A43F040
:1011DC0008039361254B9B6903F008033B603B6854
:1011EC00002241F6FE71224800F003FF00223F214D
:1011FC00204800F0FEFE41F6FE73BB600123FB604D
:10120C0000233B6102237B6107F108031946184850
:10121C0000F05EFD3F23BB600123FB6000233B61BC
:10122C0002237B6107F108031946124800F050FDB8
:10123C004FF40053BB600023FB6001233B6107F1BB
:10124C00080319460A4800F043FD4FF46073BB6075
:10125C000023FB6001233B6107F108031946054895
:10126C0000F036FD00BF1837BD4680BD00100240AF
:10127C0000080140000C014080B582B000AF7860DE
:10128C00FEF788FF00F0B4F800BF0837BD4680BDFC
:10129C0080B400AF72B600BFFEE7000080B483B02C
:1012AC0000AF00237B6024E0194A7B681B011344C8
:1012BC0000221A60164A7B681B0113440433002277
:1012CC001A60134A7B681B011344083300221A600E
:1012DC000F4A7B681B0113440C3300221A700C4A12
:1012EC007B681B0113440D3300221A707B68013399
:1012FC007B607B68272BD7DD064B00221A70054BD1
:10130C001A78054B1A7000BF0C37BD4680BC70476D
:10131C00EC000020910000209000002080B485B0EB
:10132C0000AFF860B9607A602C4B1B78591C2C4BC1
:10133C0083FB01231A11CB17D21A13469B001344BB
:10134C00DB00CA1A274B1B789A4241D0234B1B78DF
:10135C00254A1B011344FA681A60204B1B78184667
:10136C00BB68224AA2FB0323DA081F4903010B4482
:10137C0004331A60194B1B7818467B681B4AA2FB76
:10138C000323DA08184903010B4408331A60134B82
:10139C001B78154A1B0113440C3300221A700F4B97
:1013AC001B78114A1B0113440D3301221A700B4B8D
:1013BC001B785A1C0A4B83FB02131911D317C91A39
:1013CC000B469B000B44DB00D11ACAB2034B1A70BC
:1013DC0000BF1437BD4680BC704700BF9100002091
:1013EC006766666690000020EC000020CDCCCCCC6B
:1013FC0080B483B000AF2E4B1B78FB714DE0FB79B2
:10140C002C4A1B0113440D331B78002B36D0FB796F
:10141C00284A1B01134404331B68002B0CD0FB79A6
:10142C0024491A010A4404321268013A21491B0169
:10143C000B4404331A6021E0FB791E491A010A445B
:10144C000C3212780132D1B21A4A1B0113440C33FC
:10145C000A461A70FB79174A1B01134408331B68A0
:10146C00002B0BD0FA79FB79124912010A4408328D
:10147C00126810491B010B4404331A60FB795A1C87
:10148C000D4B83FB02131911D317C91A0B469B0082
:10149C000B44DB00D11A0B46FB71084B1B78FA7915
:1014AC009A42ACD100BF00BF0C37BD4680BC704720
:1014BC0090000020EC00002067666666910000201A
:1014CC0080B582B000AF264B1B78FB713EE0FB79F8
:1014DC00244A1B0113440D331B78002B27D0FB79B6
:1014EC00204A1B0113440C331B78002B1FD0FB79B3
:1014FC001C491A010A440C321278013AD1B2194A29
:10150C001B0113440C330A461A70FB79154A1B0154
:10151C0013441B689847FB79124A1B011344083388
:10152C001B68002B03D1FB79184600F021F8FB79DE
:10153C005A1C0D4B83FB02131911D317C91A0B46F6
:10154C009B000B44DB00D11A0B46FB71074B1B783D
:10155C00FA799A42BBD100BF00BF0837BD4680BDA7
:10156C0090000020EC000020676666669100002069
:10157C0090B484B000AF0346FB71384B1A78384BEB
:10158C001B789A4265D0FB79364A1B011344002222
:10159C001A60FB79334A1B011344043300221A608E
:1015AC00FB79304A1B011344083300221A60FB7983
:1015BC002C4A1B0113440C3300221A70FB79294A64
:1015CC001B0113440D3300221A70FB79FB7329E0C5
:1015DC00FB7B5A1C244B83FB02131911D317C91A1A
:1015EC000B469B000B44DB00D11A0B46BB73BB7B39
:1015FC00FA7B1C49120111441A4A1B0113440C4674
:10160C000FCB84E80F00FB7B5A1C174B83FB021398
:10161C001911D317C91A0B469B000B44DB00D11AC6
:10162C000B46FB730E4B1B78FA7B9A42D0D30C4BB8
:10163C001B785A1E0C4B83FB02131911D317C91AB2
:10164C000B469B000B44DB00D11ACAB2044B1A7038
:10165C0000E000BF1037BD4690BC704790000020E2
:10166C0091000020EC0000206766666680B485B0AF
:10167C0000AF154B9B69144A43F001039361124B65
:10168C009B6903F00103BB60BB680F4BDB690E4A1F
:10169C0043F08053D3610C4BDB6903F080537B60C8
:1016AC007B680A4B5B68FB60FB6823F0E063FB60C4
:1016BC00FB6843F08063FB60044AFB68536000BF27
:1016CC001437BD4680BC704700100240000001403A
:1016DC0080B584B000AF78607B681B68B3F1804F35
:1016EC0013D10C4BDB690B4A43F00103D361094B5B
:1016FC00DB6903F00103FB60FB68002200211C2066
:10170C0000F0AFFA1C2000F0C8FA00BF1037BD463D
:10171C0080BD00BF0010024080B400AFFEE780B473
:10172C0000AFFEE780B400AFFEE780B400AFFEE789
:10173C0080B400AFFEE780B400AF00BFBD4680BCF4
:10174C00704780B400AF00BFBD4680BC704780B40A
:10175C0000AF00BFBD4680BC704780B500AF00F045
:10176C008DF900BF80BD000080B500AF024801F0CC
:10177C00E9F800BF80BD00BFA400002080B400AF1A
:10178C0000BFBD4680BC704780B500AF012202216E
:10179C00074800F02EFC00220421054800F029FC2B
:1017AC0000220821024800F024FC00BF80BD00BFCD
:1017BC000008014080B500AF00220221074800F06C
:1017CC0018FC01220421054800F013FC002208211A
:1017DC00024800F00EFC00BF80BD00BF00080140B5
:1017EC0080B500AF00220221074800F002FC002265
:1017FC000421054800F0FDFB01220821024800F0FD
:10180C00F8FB00BF80BD00BF0008014080B500AFF1
:10181C0001221021074800F0ECFB00222021054892
:10182C0000F0E7FB00224021024800F0E2FB00BF81
:10183C0080BD00BF0008014080B500AF0022102120
:10184C00074800F0D6FB01222021054800F0D1FB0F
:10185C0000224021024800F0CCFB00BF80BD00BF3D
:10186C000008014080B500AF00221021074800F0AD
:10187C00C0FB00222021054800F0BBFB01224021C7
:10188C00024800F0B6FB00BF80BD00BF000801405D
:10189C0080B500AF10210E4800F0C3FB02210C48AC
:1018AC0000F0BFFB00220421094800F0A2FB00223B
:1018BC000821074800F09DFB00222021044800F07D
:1018CC0098FB00224021024800F093FB00BF80BD32
:1018DC000008014080B500AF04210E4800F0A1FBC8
:1018EC0020210C4800F09DFB00220221094800F049
:1018FC0080FB00220821074800F07BFB002210210E
:10190C00044800F076FB00224021024800F071FBF5
:10191C0000BF80BD0008014080B500AF08210E4813
:10192C0000F07FFB40210C4800F07BFB00220421DF
:10193C00094800F05EFB00220221074800F059FB29
:10194C0000221021044800F054FB00222021024800
:10195C0000F04FFB00BF80BD0008014080B500AF18
:10196C00002208210E4800F044FB002240210C48C4
:10197C0000F03FFB00220421094800F03AFB002252
:10198C000221074800F035FB00221021044800F02A
:10199C0030FB00222021024800F02BFB00BF80BD51
:1019AC0000080140FFF7EAFE0B480C490C4A0023E3
:1019BC0002E0D458C4500433C4188C42F9D3094AF9
:1019CC00094C002301E013600432A242FBD301F066
:1019DC00F9FAFFF73FFB704700000020540000208D
:1019EC006C3000085800002070030020FEE7000057
:1019FC0080B500AF084B1B68074A43F01003136017
:101A0C00032000F023F90F2000F008F8FFF72EFE5A
:101A1C000023184680BD00BF0020024080B582B074
:101A2C0000AF7860124B1A68124B1B7819464FF4B2
:101A3C007A73B3FBF1F3B2FBF3F3184600F03BF906
:101A4C000346002B01D001230EE07B680F2B0AD834
:101A5C00002279684FF0FF3000F003F9064A7B68EA
:101A6C001360002300E0012318460837BD4680BDF3
:101A7C0048000020500000204C00002080B400AF33
:101A8C00054B1B781A46054B1B681344034A13601D
:101A9C0000BFBD4680BC7047500000206C03002086
:101AAC0080B400AF024B1B681846BD4680BC704723
:101ABC006C03002080B485B000AF78607B6803F0C5
:101ACC000703FB600C4BDB68BB60BA684FF6FF0387
:101ADC001340BB60FB681A02BB68134343F0BF633F
:101AEC0043F40033BB60044ABB68D36000BF1437B7
:101AFC00BD4680BC704700BF00ED00E080B400AF75
:101B0C00044BDB681B0A03F007031846BD4680BC78
:101B1C00704700BF00ED00E080B483B000AF034617
:101B2C00FB7197F90730002B0BDBFB7903F01F02DD
:101B3C00064997F907305B09012000FA02F241F8D7
:101B4C00232000BF0C37BD4680BC704700E100E08D
:101B5C0080B483B000AF03463960FB7197F907304E
:101B6C00002B0ADB3B68DAB20C4997F907301201FB
:101B7C00D2B20B4483F800230AE03B68DAB208497E
:101B8C00FB7903F00F03043B1201D2B20B441A761B
:101B9C0000BF0C37BD4680BC704700BF00E100E0C1
:101BAC0000ED00E080B489B000AFF860B9607A60F5
:101BBC00FB6803F00703FB61FB69C3F10703042B0C
:101BCC0028BF0423BB61FB690433062B02D9FB69D4
:101BDC00033B00E000237B614FF0FF32BB6902FA4C
:101BEC0003F3DA43BB681A407B699A404FF0FF312C
:101BFC007B6901FA03F3D9437B680B401343184606
:101C0C002437BD4680BC704780B582B000AF786089
:101C1C007B68013BB3F1807F01D301230FE00A4ABB
:101C2C007B68013B53600F214FF0FF30FFF790FFB3
:101C3C00054B00229A60044B07221A6000231846B9
:101C4C000837BD4680BD00BF10E000E080B582B013
:101C5C0000AF78607868FFF72DFF00BF0837BD46EE
:101C6C0080BD80B586B000AF0346B9607A60FB7367
:101C7C0000237B61FFF742FF78617A68B968786965
:101C8C00FFF790FF024697F90F3011461846FFF701
:101C9C005FFF00BF1837BD4680BD80B582B000AF76
:101CAC000346FB7197F907301846FFF735FF00BF65
:101CBC000837BD4680BD80B582B000AF78607868CB
:101CCC00FFF7A2FF034618460837BD4680BD00004B
:101CDC0080B48BB000AF7860396000237B62002346
:101CEC003B6248E101227B6A02FA03F3FB613B6829
:101CFC001B68FA691340BB61BA69FB699A4240F0F0
:101D0C0037813B685B68A34A93425ED0A14A9342F9
:101D1C0075D8A14A934258D09F4A93426FD89F4A94
:101D2C00934252D09D4A934269D89D4A93424CD0DB
:101D3C009B4A934263D89B4A934246D0994A93421A
:101D4C005DD8122B2AD8122B59D801A252F823F0A5
:101D5C00D71D0008B11D0008C31D0008051E000892
:101D6C000B1E00080B1E00080B1E00080B1E0008A3
:101D7C000B1E00080B1E00080B1E00080B1E000893
:101D8C000B1E00080B1E00080B1E00080B1E000883
:101D9C000B1E0008B91D0008CD1D0008824A934295
:101DAC0013D02CE03B68DB683B6229E03B68DB68C6
:101DBC0004333B6224E03B68DB6808333B621FE082
:101DCC003B68DB680C333B621AE03B689B68002B7A
:101DDC0002D104233B6213E03B689B68012B05D1C5
:101DEC0008233B627B68FA691A6109E008233B62AD
:101DFC007B68FA695A6103E000233B6200E000BF94
:101E0C00BB69FF2B01D87B6801E07B6804337B61E5
:101E1C00BB69FF2B02D87B6A9B0002E07B6A083B04
:101E2C009B003B617B691A680F213B6901FA03F344
:101E3C00DB431A40396A3B6901FA03F31A437B69A5
:101E4C001A603B685B6803F08053002B00F09080B5
:101E5C00564B9B69554A43F001039361534B9B6965
:101E6C0003F00103BB60BB68514A7B6A9B080233D9
:101E7C0052F82330FB607B6A03F003039B000F22B4
:101E8C0002FA03F3DB43FA681340FB607B68494AB0
:101E9C0093420DD07B68484A934207D07B68474AEF
:101EAC00934201D1022304E0032302E0012300E06A
:101EBC0000237A6A02F0030292009340FA681343FB
:101ECC00FB603B497B6A9B080233FA6841F823208C
:101EDC003B685B6803F48013002B06D0384B9A6880
:101EEC003749BB6913438B6006E0354B9A68BB6975
:101EFC00DB43334913408B603B685B6803F400138E
:101F0C00002B06D02E4BDA682D49BB691343CB60EE
:101F1C0006E02B4BDA68BB69DB4329491340CB60E5
:101F2C003B685B6803F40033002B06D0244B5A68E3
:101F3C002349BB6913434B6006E0214B5A68BB69CC
:101F4C00DB431F4913404B603B685B6803F48033F1
:101F5C00002B06D01A4B1A681949BB6913430B6046
:101F6C0006E0174B1A68BB69DB43154913400B603D
:101F7C007B6A01337B623B681A687B6A22FA03F343
:101F8C00002B7FF4AFAE00BF00BF2C37BD4680BC2A
:101F9C00704700BF0000321000003110000022100A
:101FAC00000021100000121000001110001002405F
:101FBC000000014000080140000C014000100140ED
:101FCC000004014080B485B000AF78600B467B8084
:101FDC007B689A687B881340002B02D00123FB732B
:101FEC0001E00023FB73FB7B18461437BD4680BC15
:101FFC00704780B483B000AF78600B467B8013468B
:10200C007B707B78002B03D07A887B681A6103E0A5
:10201C007B881A047B681A6100BF0C37BD4680BCF4
:10202C00704780B485B000AF78600B467B807B68CE
:10203C00DB68FB607A88FB6813401A04FB68D943A1
:10204C007B880B401A437B681A6100BF1437BD466E
:10205C0080BC704780B586B000AF78607B68002B81
:10206C0001D101236CE27B681B6803F00103002B98
:10207C0000F08780924B5B6803F00C03042B0CD0B0
:10208C008F4B5B6803F00C03082B12D18C4B5B68F5
:10209C0003F48033B3F5803F0BD1894B1B6803F4F9
:1020AC000033002B6CD07B685B68002B68D101235C
:1020BC0046E27B685B68B3F5803F06D1804B1B68BA
:1020CC007F4A43F4803313602EE07B685B68002BFF
:1020DC000CD17B4B1B687A4A23F480331360784B0A
:1020EC001B68774A23F4802313601DE07B685B68D0
:1020FC00B3F5A02F0CD1724B1B68714A43F48023AB
:10210C0013606F4B1B686E4A43F4803313600BE013
:10211C006B4B1B686A4A23F480331360684B1B6853
:10212C00674A23F4802313607B685B68002B13D011
:10213C00FFF7B6FC386108E0FFF7B2FC02463B69DA
:10214C00D31A642B01D90323FAE15D4B1B6803F40A
:10215C000033002BF0D014E0FFF7A2FC386108E04C
:10216C00FFF79EFC02463B69D31A642B01D903236B
:10217C00E6E1534B1B6803F40033002BF0D100E075
:10218C0000BF7B681B6803F00203002B63D04C4B31
:10219C005B6803F00C03002B0BD0494B5B6803F01E
:1021AC000C03082B1CD1464B5B6803F48033002BCB
:1021BC0016D1434B1B6803F00203002B05D07B6840
:1021CC001B69012B01D00123BAE13D4B1B6823F0A5
:1021DC00F8027B685B69DB00394913430B603AE01A
:1021EC007B681B69002B20D0364B01221A60FFF74D
:1021FC0057FC386108E0FFF753FC02463B69D31AE1
:10220C00022B01D903239BE12D4B1B6803F0020326
:10221C00002BF0D02A4B1B6823F0F8027B685B691B
:10222C00DB00274913430B6015E0264B00221A6094
:10223C00FFF736FC386108E0FFF732FC02463B69D9
:10224C00D31A022B01D903237AE11D4B1B6803F02F
:10225C000203002BF0D17B681B6803F00803002BF2
:10226C003AD07B689B69002B19D0174B01221A605E
:10227C00FFF716FC386108E0FFF712FC02463B69D9
:10228C00D31A022B01D903235AE10D4B5B6A03F0DD
:10229C000203002BF0D0012000F09AFA1CE00A4B4C
:1022AC0000221A60FFF7FCFB38610FE0FFF7F8FB28
:1022BC0002463B69D31A022B08D9032340E100BF25
:1022CC000010024000004242800442429E4B5B6A76
:1022DC0003F00203002BE9D17B681B6803F00403B5
:1022EC00002B00F0A6800023FB75974BDB6903F0F5
:1022FC008053002B0DD1944BDB69934A43F08053F0
:10230C00D361914BDB6903F08053BB60BB68012345
:10231C00FB758E4B1B6803F48073002B18D18B4B11
:10232C001B688A4A43F480731360FFF7B9FB38616A
:10233C0008E0FFF7B5FB02463B69D31A642B01D9C1
:10234C000323FDE0814B1B6803F48073002BF0D05A
:10235C007B68DB68012B06D17B4B1B6A7A4A43F006
:10236C00010313622DE07B68DB68002B0CD1764BEC
:10237C001B6A754A23F001031362734B1B6A724A82
:10238C0023F0040313621CE07B68DB68052B0CD183
:10239C006D4B1B6A6C4A43F0040313626A4B1B6A55
:1023AC00694A43F0010313620BE0674B1B6A664AF0
:1023BC0023F001031362644B1B6A634A23F004038A
:1023CC0013627B68DB68002B15D0FFF769FB386163
:1023DC000AE0FFF765FB02463B69D31A41F28832EB
:1023EC00934201D90323ABE0574B1B6A03F0020362
:1023FC00002BEED014E0FFF753FB38610AE0FFF737
:10240C004FFB02463B69D31A41F28832934201D901
:10241C00032395E04C4B1B6A03F00203002BEED117
:10242C00FB7D012B05D1484BDB69474A23F08053D8
:10243C00D3617B68DB69002B00F08180424B5B68C9
:10244C0003F00C03082B61D07B68DB69022B46D1AF
:10245C003F4B00221A60FFF723FB386108E0FFF7BF
:10246C001FFB02463B69D31A022B01D9032367E0F9
:10247C00354B1B6803F00073002BF0D17B681B6A93
:10248C00B3F5803F08D1304B5B6823F400327B6896
:10249C009B682D4913434B602B4B5B6823F47412E0
:1024AC007B68196A7B685B6A0B43274913434B6053
:1024BC00274B01221A60FFF7F3FA386108E0FFF7A7
:1024CC00EFFA02463B69D31A022B01D9032337E0FA
:1024DC001D4B1B6803F00073002BF0D02FE01C4B3E
:1024EC0000221A60FFF7DCFA386108E0FFF7D8FA2F
:1024FC0002463B69D31A022B01D9032320E0124B6D
:10250C001B6803F00073002BF0D118E07B68DB69CB
:10251C00012B01D1012313E00B4B5B68FB60FB68C3
:10252C0003F480327B681B6A9A4206D1FB6803F481
:10253C0070127B685B6A9A4201D0012300E0002391
:10254C0018461837BD4680BD001002400070004090
:10255C006000424280B584B000AF786039607B681F
:10256C00002B01D10123D0E06A4B1B6803F0070359
:10257C003A689A4210D9674B1B6823F007026549E9
:10258C003B6813430B60634B1B6803F007033A680B
:10259C009A4201D00123B8E07B681B6803F0020368
:1025AC00002B20D07B681B6803F00403002B05D0A4
:1025BC00594B5B68584A43F4E06353607B681B6873
:1025CC0003F00803002B05D0534B5B68524A43F4CD
:1025DC0060535360504B5B6823F0F0027B689B6840
:1025EC004D4913434B607B681B6803F00103002BC0
:1025FC0040D07B685B68012B07D1474B1B6803F409
:10260C000033002B15D101237FE07B685B68022B24
:10261C0007D1414B1B6803F00073002B09D1012338
:10262C0073E03D4B1B6803F00203002B01D1012327
:10263C006BE0394B5B6823F003027B685B683649BF
:10264C0013434B60FFF72CFAF8600AE0FFF728FA07
:10265C000246FB68D31A41F28832934201D9032314
:10266C0053E02D4B5B6803F00C027B685B689B00AE
:10267C009A42EBD1274B1B6803F007033A689A4246
:10268C0010D2244B1B6823F0070222493B681343EA
:10269C000B60204B1B6803F007033A689A4201D089
:1026AC00012332E07B681B6803F00403002B08D085
:1026BC00194B5B6823F4E0627B68DB6816491343B3
:1026CC004B607B681B6803F00803002B09D0124B8E
:1026DC005B6823F460527B681B69DB000E49134373
:1026EC004B6000F021F802460B4B5B681B0903F0B2
:1026FC000F030A49CB5C22FA03F3094A1360094B16
:10270C001B681846FFF78AF9002318461037BD4698
:10271C0080BD00BF00200240001002404030000885
:10272C00480000204C00002080B487B000AF00238C
:10273C00FB600023BB6000237B6100237B600023D4
:10274C003B611E4B5B68FB60FB6803F00C03042BC6
:10275C0002D0082B03D027E0194B3B6127E0FB6824
:10276C009B0C03F00F03174AD35C7B60FB6803F4EC
:10277C008033002B10D0114B5B685B0C03F0010312
:10278C00114AD35CBB607B680D4A02FB03F2BB6849
:10279C00B2FBF3F37B6104E07B680C4A02FB03F3AE
:1027AC007B617B693B6102E0054B3B6100BF3B6990
:1027BC0018461C37BD4680BC704700BF0010024055
:1027CC0000127A00503000086030000800093D000B
:1027DC0080B485B000AF78600A4B1B680A4AA2FB34
:1027EC0003235B0A7A6802FB03F3FB6000BFFB6800
:1027FC005A1EFA60002BF9D100BF00BF1437BD463A
:10280C0080BC704748000020D34D621080B582B068
:10281C0000AF78607B68002B01D1012341E07B681D
:10282C0093F83D30DBB2002B06D17B68002283F895
:10283C003C207868FEF74CFF7B68022283F83D2031
:10284C007B681A687B6804331946104600F056FA08
:10285C007B68012283F846207B68012283F83E20A6
:10286C007B68012283F83F207B68012283F840209B
:10287C007B68012283F841207B68012283F8422087
:10288C007B68012283F843207B68012283F8442073
:10289C007B68012283F845207B68012283F83D2068
:1028AC00002318460837BD4680BD000080B485B0B3
:1028BC0000AF78607B6893F83D30DBB2012B01D020
:1028CC00012335E07B68022283F83D207B681B687E
:1028DC00DA687B681B6842F00102DA607B681B686F
:1028EC00164A934209D07B681B68B3F1804F04D021
:1028FC007B681B68124A934211D17B681B689B68EA
:10290C0003F00703FB60FB68062B10D07B681B6889
:10291C001A687B681B6842F001021A6007E07B684A
:10292C001B681A687B681B6842F001021A6000235E
:10293C0018461437BD4680BC704700BF002C0140C0
:10294C000004004080B584B000AF78607B681B68E1
:10295C00DB68FB607B681B681B69BB60BB6803F0B2
:10296C000203002B20D0FB6803F00203002B1BD0CA
:10297C007B681B686FF002021A617B6801221A7770
:10298C007B681B689B6903F00303002B03D07868FA
:10299C0000F098F905E0786800F08BF9786800F0A1
:1029AC009AF97B6800221A77BB6803F00403002BAA
:1029BC0020D0FB6803F00403002B1BD07B681B6842
:1029CC006FF004021A617B6802221A777B681B681D
:1029DC009B6903F44073002B03D0786800F072F904
:1029EC0005E0786800F065F9786800F074F97B68A8
:1029FC0000221A77BB6803F00803002B20D0FB6879
:102A0C0003F00803002B1BD07B681B686FF00802D7
:102A1C001A617B6804221A777B681B68DB6903F0F8
:102A2C000303002B03D0786800F04CF905E07868BC
:102A3C0000F03FF9786800F04EF97B6800221A77B5
:102A4C00BB6803F01003002B20D0FB6803F01003CD
:102A5C00002B1BD07B681B686FF010021A617B681F
:102A6C0008221A777B681B68DB6903F44073002B20
:102A7C0003D0786800F026F905E0786800F019F9C1
:102A8C00786800F028F97B6800221A77BB6803F09D
:102A9C000103002B0CD0FB6803F00103002B07D0C3
:102AAC007B681B686FF001021A617868FEF7E4FB23
:102ABC00BB6803F08003002B0CD0FB6803F0800391
:102ACC00002B07D07B681B686FF080021A61786856
:102ADC0000F06FFABB6803F04003002B0CD0FB68CE
:102AEC0003F04003002B07D07B681B686FF040029B
:102AFC001A61786800F0F8F8BB6803F02003002B2B
:102B0C000CD0FB6803F02003002B07D07B681B68FC
:102B1C006FF020021A61786800F042FA00BF10379B
:102B2C00BD4680BD80B584B000AF786039600023AD
:102B3C00FB737B6893F83C30012B01D10223B4E08A
:102B4C007B68012283F83C207B68022283F83D20BD
:102B5C007B681B689B68BB60BB6823F07703BB601A
:102B6C00BB6823F47F43BB607B681B68BA689A60C0
:102B7C003B681B68B3F5005F3ED0B3F5005F00F215
:102B8C008780B3F5805F00F08680B3F5805F7FD8D7
:102B9C00702B1AD0702B7BD8602B50D0602B77D831
:102BAC00502B3CD0502B73D8402B58D0402B6FD887
:102BBC00302B64D0302B6BD8202B60D0202B67D8D7
:102BCC00002B5CD0102B5AD062E07B6818683B68F5
:102BDC0099683B685A683B68DB6800F06AF97B6867
:102BEC001B689B68BB60BB6843F07703BB607B686A
:102BFC001B68BA689A604FE07B6818683B689968F4
:102C0C003B685A683B68DB6800F053F97B681B68CB
:102C1C009A687B681B6842F480429A603CE07B684F
:102C2C0018683B6859683B68DB681A4600F0CAF8BC
:102C3C007B681B685021184600F021F92CE07B685A
:102C4C0018683B6859683B68DB681A4600F0E8F87E
:102C5C007B681B686021184600F011F91CE07B684A
:102C6C0018683B6859683B68DB681A4600F0AAF89C
:102C7C007B681B684021184600F001F90CE07B686A
:102C8C001A683B681B681946104600F0F8F803E018
:102C9C000123FB7300E000BF7B68012283F83D2019
:102CAC007B68002283F83C20FB7B18461037BD461E
:102CBC0080BD80B483B000AF786000BF0C37BD46D8
:102CCC0080BC704780B483B000AF786000BF0C3715
:102CDC00BD4680BC704780B483B000AF786000BF45
:102CEC000C37BD4680BC704780B483B000AF7860B1
:102CFC0000BF0C37BD4680BC7047000080B485B067
:102D0C0000AF786039607B681B68FB607B682B4A7E
:102D1C00934207D07B68B3F1804F03D07B68284A7D
:102D2C00934208D1FB6823F07003FB603B685B683F
:102D3C00FA681343FB607B68204A934207D07B6898
:102D4C00B3F1804F03D07B681D4A934208D1FB68D6
:102D5C0023F44073FB603B68DB68FA681343FB6049
:102D6C00FB6823F080023B685B691343FB607B6864
:102D7C00FA681A603B689A687B68DA623B681A6882
:102D8C007B689A627B680D4A934203D13B681A694F
:102D9C007B681A637B6801225A617B681B6903F0AC
:102DAC000103002B05D07B681B6923F001027B68B3
:102DBC001A6100BF1437BD4680BC7047002C01401F
:102DCC000004004080B487B000AFF860B9607A604E
:102DDC00FB681B6A7B61FB681B6A23F00102FB68C2
:102DEC001A62FB689B693B613B6923F0F0033B6112
:102DFC007B681B013A6913433B617B6923F00A032F
:102E0C007B617A69BB6813437B61FB683A699A61A1
:102E1C00FB687A691A6200BF1C37BD4680BC7047DC
:102E2C0080B487B000AFF860B9607A60FB681B6A49
:102E3C007B61FB681B6A23F01002FB681A62FB685B
:102E4C009B693B613B6923F470433B617B681B03CB
:102E5C003A6913433B617B6923F0A0037B61BB6838
:102E6C001B017A6913437B61FB683A699A61FB68C1
:102E7C007A691A6200BF1C37BD4680BC704780B4AB
:102E8C0085B000AF786039607B689B68FB60FB683D
:102E9C0023F07003FB603A68FB68134343F00703AD
:102EAC00FB607B68FA689A6000BF1437BD4680BC33
:102EBC00704780B487B000AFF860B9607A603B604F
:102ECC00FB689B687B617B6923F47F437B613B6878
:102EDC001A027B681A43BB6813437A6913437B61FC
:102EEC00FB687A699A6000BF1C37BD4680BC70478E
:102EFC0080B485B000AF786039607B6893F83C3063
:102F0C00012B01D1022341E07B68012283F83C2094
:102F1C007B68022283F83D207B681B685B68FB6042
:102F2C007B681B689B68BB60FB6823F07003FB60CD
:102F3C003B681B68FA681343FB607B681B68FA6884
:102F4C005A607B681B68144A934209D07B681B68E3
:102F5C00B3F1804F04D07B681B68104A93420CD1AC
:102F6C00BB6823F08003BB603B685B68BA681343A3
:102F7C00BB607B681B68BA689A607B68012283F827
:102F8C003D207B68002283F83C2000231846143730
:102F9C00BD4680BC704700BF002C014000040040BF
:102FAC0080B483B000AF786000BF0C37BD4680BCE6
:102FBC00704780B483B000AF786000BF0C37BD465B
:102FCC0080BC704770B500260C4D0D4C641BA410D2
:102FDC00A64209D100F022F800260A4D0A4C641BC7
:102FEC00A410A64205D170BD55F8043B9847013694
:102FFC00EEE755F8043B98470136F2E764300008D9
:10300C00643000086430000868300008034602444D
:10301C00934200D1704703F8011BF9E7F8B500BFE4
:10302C00F8BC08BC9E467047F8B500BFF8BC08BC9D
:04303C009E467047F5
:103040000000000000000000010203040607080958
:1030500002030405060708090A0B0C0D0E0F1010D9
:043060000102000069
:04306400310100082E
:043068000D0100084E
:10306C000100000000000000000000000100000052
:10307C000000000000000000010000000000000043
:10308C000000000001000000000000000000000033
:10309C00C800000001000000010000000500000055
:1030AC00020000000300000000127A001000000073
:0430BC00010000000F
:04000005080019B125
:00000001FF
